:020000040800F2
:10000000E870002069030008234100089F3B0008B6
:10001000214100084D110008A965000800000000FA
:10002000000000000000000000000000A90200081D
:10003000811200080000000005030008994500082F
:100040008303000883030008830300088303000878
:100050008303000883030008830300088303000868
:100060008312000883030008891200088303000834
:100070008303000883030008830300088303000848
:1000800083030008830300080910000883030008A5
:100090008303000883030008830300088303000828
:1000A00083030008594600088303000883030008FF
:1000B00065460008714600087D4600088303000875
:1000C00083030008830300088303000883030008F8
:1000D00083030008830300088303000883030008E8
:1000E00083030008830300088303000883030008D8
:1000F00083030008830300088303000883030008C8
:10010000830300088303000889460008830300086E
:1001100083030008830300088303000883030008A7
:100120008303000883030008F91100088303000813
:100130008303000883030008830300088303000887
:100140008303000883030008830300088303000877
:100150008303000883030008830300088303000867
:100160008303000883030008830300088303000857
:1001700083030008294100088303000800000000F1
:100180008303000883030008830300088303000837
:100190008303000883030008830300088303000827
:1001A00083030008830300088303000800F002F8BB
:1001B00000F06AF80AA090E8000C82448344AAF197
:1001C0000107DA4501D100F05FF8AFF2090EBAE895
:1001D0000F0013F0010F18BFFB1A43F0010318477B
:1001E00014960000349600000A444FF0000C10F8FA
:1001F000013B13F0070408BF10F8014B1D1108BFA5
:1002000010F8015B641E05D010F8016B641E01F844
:10021000016BF9D113F0080F1EBF10F8014BAD1C94
:100220000C1B09D16D1E58BF01F801CBFAD505E0B2
:1002300014F8016B01F8016B6D1EF9D59142D6D30C
:10024000704700000023002400250026103A28BF34
:1002500078C1FBD8520728BF30C148BF0B60704738
:10026000642900F06781002070471FB509F0EBF9A1
:1002700000F07EFE04000020002108F04FFE401C2C
:1002800060601FBD10B510BD00F036FE1146FFF7CF
:10029000ECFF06F01DFA00F05DFE03B4FFF7F2FF7D
:1002A00003BC00F069FE00002C4B19680868B0E838
:1002B000F04F80F30988BFF36F8F4FF0000080F399
:1002C000118870470000000008480068006880F34B
:1002D00008884FF0000080F3148862B661B6BFF35F
:1002E0004F8FBFF36F8F00DF00BF00BF08ED00E04E
:1002F000DFF80C00016841F470010160704700BF35
:1003000088ED00E0EFF30980BFF36F8F134B1A689D
:100310001EF0100F08BF20ED108A20E9F04F10608A
:1003200009B44FF0500080F31188BFF34F8FBFF333
:100330006F8F07F019FF4FF0000080F3118809BCA0
:1003400019680868B0E8F04F1EF0100F08BFB0EC55
:10035000108A80F30988BFF36F8F7047D4010020A3
:10036000EFF30580704700000948804709480047BF
:10037000FEE7FEE7FEE7FEE7FEE7FEE7FEE7FEE755
:10038000FEE7FEE704480549054A064B70470000B2
:1003900049460008AD010008E86A0020E870002026
:1003A000E86C0020E86C002053EA020C00F0698041
:1003B0002DE9F04B4FF00006002B1FBFB3FA83F579
:1003C00003FA05F424FA05F65E4012BF1643B2FAAA
:1003D00082F502FA05F4C5F120051EBF22FA05FCDC
:1003E00044EA0C04203556EA044C4FEA144418BF82
:1003F000641C4FF000084FF00009904271EB030CB1
:1004000039D3002919BFB1FA81F701FA07F6B0FA1A
:1004100080F700FA07F6C7F120071EBF20FA07FC95
:1004200046EA0C062037B6FBF4FCA7EB0507103FA5
:1004300007F01F0BCBF120060CFA0BFB2CFA06F68B
:1004400044BFB3460026202FA4BF5E464FF0000BEA
:100450005BEA060C08BF4FF0010B19EB0B09ABFB75
:10046000027C48EB0608C01B06FB02CC0BFB03CC4E
:1004700071EB0C01C1E70B46024641464846BDE818
:10048000F08B13B54FF000004FF00001AFF3008088
:10049000BDE81C40704700000FB41CB50C0007AA53
:1004A000009001D02044401E074B7B4469460190D8
:1004B000069800F0C6FA002C03D06946002000F030
:1004C000D3FA1CBC5DF814FBC50500002DE9F04112
:1004D0000E460446002020622046E168884730B37B
:1004E000252805D0D4E901219047206A401CF2E775
:1004F000E168204600278847050018D0A5F1410093
:10050000192802D820354FF4006732462946204684
:100510002760FFF7A5FE40B1012804D0F61D26F0A4
:1005200007060836D8E7361DD6E72846DAE7206AF8
:10053000BDE8F0812DE9F0410646002410687529D8
:10054000314616A510D0AFF30080002802DA4042F1
:1005500013A507E031688A0701D512A502E0490713
:1005600004D511A5012401E0AFF3008000210A2287
:1005700006F1240709E0B0FBF2FCB0FBF2F302FB4A
:100580001C00303078541846491C0028F3D123460B
:100590002A463046BDE8F04100F0F4B90000000002
:1005A0002D0000002B000000200000000FB400B55B
:1005B0008DB010A9099000910B904FF0FF300A9078
:1005C00000200C90064878440690064878446A4615
:1005D00007900F9909A800F069FA0DB05DF814FBB7
:1005E000030500001B0500002DE9FF5F1D464FF0CD
:1005F000FF3B91464FF000085F46D5E90146A969E7
:1006000001987F1C8847296A824688470028F6D1CE
:10061000BAF1FF3F0CD0002E24F4C06419DD60064F
:1006200014D5BAF12B0F09D0BAF12D0F0ED103E07A
:10063000584604B0BDE8F09F44F48064A96901986D
:100640007F1C8847761E8246002E02DDBAF1300FED
:1006500003D0B9F1000F26D032E0A969761E0198C7
:100660007F1C44F400748847002E824605DDBAF1F1
:10067000780F06D0BAF1580F03D0B9F1000F10D09F
:100680001EE0B9F1000F02D0B9F1100F18D1A9691D
:10069000761E01987F1C24F400748847824610203F
:1006A00002E0082000E00A20814609E0A96908FB71
:1006B0000908761E01987F1C44F40074884782461E
:1006C000002E05DD4946504600F0DBF90028EDDA42
:1006D000E96901988847A00502D46FF00100A8E7F6
:1006E000E00725D1600613D5600502D5C8F10000EA
:1006F00000E0404629680A1D2A600968220501D5E4
:10070000087015E0220701D5088011E008600FE0AD
:100710002868011D29600068210502D580F8008045
:1007200006E0210702D5A0F8008001E0C0F80080B3
:1007300038467EE72DE9FF5F4FF0000899461446E2
:1007400046469169D2E901A7DDF838B0019888479B
:10075000054659EA0B0005D009E0A1690198761C0D
:1007600088470546216A284688470028F5D1681C35
:1007700003D05FEACA7005D015E04FF0FF3004B037
:10078000BDE8F09F2068011D2160D0F800800AE0DC
:100790005FEACA7001D108F8015BA169761C019873
:1007A0007F1E88470546002F1ADD681C18D0B9F156
:1007B000000F0DD0E81705EBD060421120F01F00AC
:1007C00059F822102A1A012090400142E0D107E096
:1007D000BBF1000FDCD12846216A88470028D7D01A
:1007E000E16901988847BBF1000F07D1002E05DDB4
:1007F0005FEACA7002D1002188F80010A068B842F0
:1008000003DDBBF1000F03D017B16FF00100B6E7B5
:100810003046B4E710B5431C02E010F8011B71B17B
:100820008107FAD14FF0013202C88C1A8C4314EAC6
:10083000C211F9D0C01A0A0603D0C01E10BDC01ADA
:1008400010BD0A0401D0801E10BD0902FCD0401E5C
:1008500010BD032A40F2308010F0030C00F0158028
:1008600011F8013BBCF1020F624498BF11F801CBB3
:1008700000F8013B38BF11F8013BA2F1040298BF18
:1008800000F801CB38BF00F8013B11F0030300F082
:100890003D81083AC0F0088051F8043B083A51F80D
:1008A00004CBA0E80810F5E7121D5CBF51F8043B2B
:1008B00040F8043BAFF30080D20724BF11F8013B9E
:1008C00011F801CB48BF11F8012B24BF00F8013B00
:1008D00000F801CB48BF00F8012B704702F0FF037E
:1008E00043EA032242EA024200F002B84FF000025B
:1008F0000429C0F0128010F0030C00F01B80CCF132
:10090000040CBCF1020F18BF00F8012BA8BF20F89F
:10091000022BA1EB0C0100F00DB85FEAC17C24BFF3
:1009200000F8012B00F8012B48BF00F8012B70479D
:100930004FF0000200B5134694469646203922BF78
:10094000A0E80C50A0E80C50B1F12001BFF4F7AFC3
:10095000090728BFA0E80C5048BF0CC05DF804EBA5
:10096000890028BF40F8042B08BF704748BF20F813
:10097000022B11F0804F18BF00F8012B7047704711
:10098000704770472DE9F0470D4699469246044658
:1009900000F124080168880604D5E06921F01001FF
:1009A000216000E00120A84201DD471B00E0002794
:1009B000A1697A1902EB0900081AA0612078C00623
:1009C00002D42046AFF30080002608E0D4E90121DC
:1009D0001AF806009047206A401C761C20624E459B
:1009E000F4DB2078C0060AD52046AFF3008006E08D
:1009F000D4E9012130209047206A401C2062381E33
:100A0000A7F10107F4DC07E0D4E9012118F805009B
:100A10009047206A401C2062281EA5F10105F3DCE6
:100A20002046AFF300802078000602D50220BDE802
:100A3000F0870120FBE7000001694A1C0261087889
:100A4000704700B58FB0CDE901310021059105490E
:100A50007944CDE9031011466846FFF737FD0FB022
:100A600000BD0000E5FFFFFF0A6802F8010B0A6005
:100A70007047D1E900239A4202D2531C0B601070D8
:100A800070473A2800D2303820F02002412A01D3A2
:100A9000A2F13700884201D34FF0FF3070470000C9
:100AA000026811441378016018467047D160054907
:100AB0007944516104497944116200211161114660
:100AC00000F060B8EDFFFFFFB7000000426842B1E0
:100AD000016811F8013B23B1521EC0E9001218460B
:100AE00070470121C160881E704742685AB1C368CF
:100AF000016843B983688B4205D0491E521CC0E986
:100B00000012002070474FF0FF30704710B5203AB8
:100B1000C0F00B80B1E81850203AA0E81850B1E8B6
:100B20001850A0E81850BFF4F5AF5FEA027C24BF6C
:100B3000B1E81850A0E8185044BF18C918C0BDE863
:100B400010405FEA827C24BF51F8043B40F8043B2C
:100B500008BF7047D20728BF31F8023B48BF11F8E1
:100B6000012B28BF20F8023B48BF00F8012B70473B
:100B700010B5044600F0E6F90068005D00F00100E1
:100B800010BD00002DE9F34F4FF0000A0C46564609
:100B90008DB001200C9001F10C000B9062690B9854
:100BA00001219047051E2DD0252D2CD0216A884784
:100BB000C0B162690B9801219047216A88470028DB
:100BC000F7D16269411E0B98904700E0761CA1693D
:100BD0000D988847216A88470028F7D1E1690D9868
:100BE0008847DBE7A1690D988847A842074601D1ED
:100BF000761CD3E7E1690D9888477F1C02D1BAF1D2
:100C0000000F6FD06CE162690B9800273D463946B2
:100C100090472A2804D162690B9801219047012549
:100C2000DFF8D08262690B9801219047A0F1300172
:100C30000A290AD24745E5DC07EB870100EB4107AB
:100C4000303FDFD445F01005ECE7E90601D46FF042
:100C500000476C280AD04C2814D0682815D06A2880
:100C60000DD074281CD07A281AD01DE062690B9828
:100C7000012190476C2802D045F0040514E045F0AE
:100C800002050DE045F020050AE062690B9801219C
:100C90009047682802D045F0080505E045F4006556
:100CA00062690B9801219047C4E9015765283DD03E
:100CB00019DC58287AD00CDC452837D004DC2528EC
:100CC00026D041289ED131E046282FD0472899D1FF
:100CD0002CE05B2877D0612828D063287CD064285A
:100CE00023D15AE0F7E06F2848D008DC66281DD0F1
:100CF00067281BD0692821D06E2816D127E07028DC
:100D000045D0732868D0752847D078280DD14DE09C
:100D1000A1690D988847252805463FF469AFE16928
:100D20000D9888476D1C3FF46AAFD9E00D992346B2
:100D30006A466FF00100AFF30080C6E045F0400066
:100D400023464FF000026060A80736D43EE0E80773
:100D50007FF447AF2068011D21600068290501D597
:100D600006701BE7290701D5068017E7A90703D5F9
:100D7000F117C0E9006111E706600FE745F0400098
:100D800023464FF008026060A80716D41EE040F624
:100D90000E0125EA0100606016E045F040002346A0
:100DA0004FF00A026060A80707D40FE045F040004A
:100DB0006060A80708D5234610220D996FF0010046
:100DC000AFF3008081E007E0102223460D996FF019
:100DD0000100FFF709FC78E04FF0000963284F4657
:100DE000C8464B46CB4602D05B2807D039E0207975
:100DF000C00601D40120A060012732E06269D4F866
:100E00000CB00B98012190475E2807D14FF00109E3
:100E100049466269D4F80CB00B989047216939B9FA
:100E200000210A4603AB43F82120491C0829FADBBC
:100E3000D8B3216949B308F1010862690B9801210F
:100E400090475D28F4D1B9F1000F09D0002003A923
:100E500051F82020D24341F82020401C0828F7DB1D
:100E600003AB2069002820794FEA40701ED05B4612
:100E70002246CDF80080CDE901970D9900286FF04A
:100E8000010020DAAFF300801FE0C11703AA00EBD6
:100E9000D1614B1121F01F0102EB8302411A13684B
:100EA0000120884003431360C7E719E00D992246EB
:100EB00000286FF00100009702DAAFF3008004E031
:100EC000FFF738FC01E0AFF3008000280ADA401C8D
:100ED00006D10C9820B14FF0FF300FB0BDE8F08F75
:100EE0005046FAE7E90701D10AF1010A0644002059
:100EF0000C9053E6CCCCCC0C754600F035F8AE46E1
:100F000005006946534620F00700854618B020B515
:100F1000FFF738FABDE820404FF000064FF0000719
:100F20004FF000084FF0000B21F00701AC46ACE891
:100F3000C009ACE8C009ACE8C009ACE8C0098D46FE
:100F40007047000010B500F013F8001D10BD00BF81
:100F5000CD7F000010B50446AFF300802046BDE809
:100F60001040FFF79AB9000000487047846A0020DB
:100F700000487047A46A002001491820ABBEFEE774
:100F8000260002004FF0013C50F8042B51F8043BBE
:100F90009A4221D1A2EB0C03934313EACC1317D14D
:100FA00050F8042B51F8043B9A4215D1A2EB0C03E4
:100FB000934313EACC130BD150F8042B51F8043BA4
:100FC0009A4209D1A2EB0C03934313EACC13DBD072
:100FD0004FF00000704700BFD01A01BAB1FA81F19A
:100FE00001F0180122FA01F0CB40C1F12001DBB27F
:100FF000C0B2C01A2CFA01F3D11A914311EAC311FD
:10100000E6D170477047000010B5044800F0F9F9C8
:10101000BDE81040024800F0F4B90000E4020020EE
:101020002C030020464910B54A6822F440324A6039
:101030004A6843681A434A6001684A6822F4807229
:101040004A6001684A68036942EA03224A6001680B
:101050004A6822F040724A6001684A6883681A430D
:101060004A6001688A6822F400628A6001688A68BE
:10107000C3681A438A60816A6FF07062D142016866
:101080008A6822F070628A6001688A680CD0836A7C
:101090001A438A6001688A6822F040528A600168B7
:1010A0008A68C36A1A4301E022F040528A600168EC
:1010B0008A6822F002028A6001688A68037E42EA36
:1010C00043028A6090F82010002901684A680FD016
:1010D00042F400624A6001684A6822F460424A6051
:1010E00001684A68174C436A04EB43331A4301E032
:1010F00022F400624A600168CA6A22F47002CA627D
:101100000168CA6A838B104C04EB03531A43CA620A
:1011100001688A6822F400728A6001688A6890F81F
:10112000303042EA43228A6001688A6822F4806291
:101130008A6001688A68406942EA8020886010BD40
:101140000023014000E0FFFF0000F0FFFEE7002069
:10115000704700207047000010B500220449054880
:1011600003F052FE0449034803F041FE002010BD85
:10117000AC120020D0050020AC0A002070B50C464F
:10118000054601460D4803F032FE0C4803F008FE08
:1011900014210B48FFF7AAFB247829462246084869
:1011A000FFF757FB07480621006805F009FC2146B8
:1011B0002846FFF79BFB002070BD0000D0050020F3
:1011C000EC0400204000002000207047094A10B5C0
:1011D000D2F8BC22D2F814220AB1012010BD0A466E
:1011E0000146044803F010FEBDE81040014803F03A
:1011F00085BE0000D0050020014800F00BBB0000B8
:101200002805002001681823CAB2103AB2FBF3F295
:10121000054B6FF30901032A9B5CC36500D9091DC7
:1012200081650846704700003497000810B50146F4
:1012300000208B698A6A4FF0C07453B1B3F5005F28
:1012400015D072B1012A0CD0022A0AD0032A09D182
:1012500004E01AB1012A06D0022A03D1C96AC901E1
:1012600000D5012010BDC96AA142FAD010BD002AE4
:10127000F7D0012AF2D0022AF3D0032AF3D010BD0E
:101280007047042000F05CBC102000F059BC72B61E
:10129000FEE7704778B50024009490F83C20012ABE
:1012A00019D0012280F83C200A6807230568092A22
:1012B00013D9EE680A3A02EB420293409E43EE6075
:1012C0000B788A680A3B03EB43039A400368DD68A6
:1012D0002A43DA6010E0022078BD2E6902EB420258
:1012E00093409E432E610B788A6803EB43039A4038
:1012F00003681D692A431A614A681F23072A13D20B
:1013000005686E6B521E02EB820293409E436E6331
:101310000A8893B20A79521E02EB82029340026855
:10132000556B2B43536327E005680D2A12D22E6BB1
:10133000D21F02EB820293409E432E630B790A88F0
:10134000DB1F92B203EB83039A4003681D6B2A43B1
:101350001A6311E0EE6A0D3A02EB820293409E435B
:10136000EE620B790A880D3B92B203EB83039A403D
:101370000368DD6A2A43DA621B4B0568194A9D42FD
:101380000AD10D68122D07D1556825F40005556066
:10139000556845F48005556005689D421DD1134D83
:1013A0000B68AB4201D0112B17D1536823F4800393
:1013B0005360536843F4000353600968A9420CD199
:1013C0000B490C4A0968B1FBF2F101EB81014900BC
:1013D00000E0491E00910029FBD180F83C4000202C
:1013E00078BD0000002301400020014012000010E1
:1013F000D001002040420F00704770470068C06C69
:10140000704770B5044600680668456816F0020F1C
:1014100005F020012AD049B3216CC90603D4216C00
:1014200041F400712164816811F0405F17D1217E81
:10143000A9B9C16A11F4700F02D0816849050ED4B0
:10144000416821F020014160206C20F4807020640C
:10145000206CC00403D4206C40F0010020642046BE
:10146000FFF7CAFF21686FF01200086016F0040F42
:1014700005F0800132D089B3206CC00603D4206C03
:1014800040F4005020642068816811F4401F1ED190
:10149000816B11F4401F02D08168490517D441685F
:1014A000490514D4816811F0405F10D1217E71B9D3
:1014B000416821F080014160206C20F4805020645C
:1014C000206CC00503D4206C40F00100206420464D
:1014D000FFF7DFFE21686FF00C00086016F0010FC7
:1014E00005F040010FD071B120680068C0070AD034
:1014F000206C40F480302064204600F043F82168DE
:101500006FF00100086016F0200F05F080610ED02A
:1015100000290CD0606C40F00200606420686FF01D
:10152000200505602046FFF768FF2068056070BD54
:1015300070B504004FF0000503D0206C002610B1F8
:1015400007E0012070BD204600F01EF8666484F8B4
:101550003C60206CC00610D4206C20F4885040F011
:10156000020020642046FFF75DFD6664206C20F0D9
:10157000020040F00100206400E0012584F83C6096
:10158000284670BD70470000F0B587B006461421AC
:101590006846FFF7CDF930492E4F346800252E48B4
:1015A000143903222D4BBC4230D1046844F400743A
:1015B0000460006800F400700590086840F00100C5
:1015C00008600868694600F00100059044208DE835
:1015D0002500184600F0C0FA224C214820604FF048
:1015E0000070C4E90105C013C4E9035080006061C4
:1015F0008000C4E9060525622046656200F0DAF93C
:1016000008B1FFF744FEB463A66319E0164EB44276
:101610001ED1046844F480640460006800F48060B3
:101620000590086840F0010008600868694600F00D
:101630000100059008208DE82500184600F08CFA7E
:1016400000220521122000F049FC122000F038FC95
:1016500007B0F0BD002101404438024000000240C4
:101660004064024028050020002201402DE9F0419D
:10167000044600680D4681684FF0000749050BD508
:101680008068C00508D5206C40F02000206484F8F4
:101690003C700120BDE8F08100F08AFB064613E0B3
:1016A000681C11D025B100F083FB801BA8420BD928
:1016B00020680068800707D4206C40F00400206494
:1016C00084F83C700320E5E7206800688007E7D5D0
:1016D00021686FF012000860206C40F400702064F4
:1016E0002068816811F0405F13D1217E89B9C16AF9
:1016F00011F4700F02D0806840050AD4206C20F4E9
:1017000080702064206CC00403D4206C40F0010081
:1017100020640020BEE7000018B50021009190F879
:101720003C20012A07D0012280F83C2002689368FF
:10173000DB0702D011E0022018BD936843F00103DB
:1017400093602E4A2E4B1268B2FBF3F202EB420278
:1017500000E0521E0092002AFBD102689368DB076A
:1017600042D0036C40F20164A34343F480730364EA
:1017700053685B0505D5036C23F4005343F4805391
:101780000364036CDB0404D5436C23F00603436459
:1017900000E0416480F83C101A496FF022031360A6
:1017A00049680068CA06184906D0884224D1816871
:1017B00011F0405F13D01FE08842F8D0134A9042E6
:1017C00003D1D1F80423D206F1D0114A904213D1AB
:1017D000D1F8041301F01F011029E8D30CE081684F
:1017E00041F08041816007E0016C41F0100101642B
:1017F000416C41F001014164002018BDD00100207E
:1018000040420F0000230140002001400021014020
:10181000002201402DE9F84304464FF00009CDF8BD
:10182000009063484FF41651A56D0068B0FBF1F7C6
:101830002E6894F85C10082000FA01F131420FD0B4
:1018400021680A6852070BD50A6822F004020A6070
:1018500094F85C108840A860606D40F001006065FD
:1018600094F85C104FF0010808FA01F0304208D0FB
:1018700021684969090604D5A860606D40F002003E
:10188000606594F85C1004208840304208D02168DC
:101890000968890704D5A860606D40F004006065A0
:1018A00094F85C1010208840304218D021680968F4
:1018B000090714D5A86020680168490304D50068A9
:1018C000000308D5A16C07E00168C90503D40168CD
:1018D00021F008010160216C09B12046884794F885
:1018E0005C1020208840304231D021680968C90648
:1018F0002DD5A86094F8350005282068016806D029
:10190000490347D5006800031DD4616C1CE021F039
:10191000160101602068416921F080014161206C5D
:1019200008B9A06C20B12068016821F008010160AD
:1019300094F85C103F208840A86084F8358084F8D3
:101940003490216D1FE0E16B09B120468847606D3E
:1019500000282BD0606DC00714D0052084F8350016
:101960002068016821F0010101600098401C00908E
:10197000B84203D820680068C007F6D184F83580E3
:1019800084F83490E16C002910D001B02046BDE805
:10199000F04308470168C905D5D4016821F010015A
:1019A000016084F8358084F83490CCE7BDE8F88392
:1019B000D00100202DE9F041044600F0F9F9064677
:1019C0005CB1022084F83500002584F8345020688A
:1019D000016821F0010101600DE00120BDE8F08106
:1019E00000F0E6F9801B052805D92020606503205A
:1019F00084F83500F2E720680068C007F0D122685B
:101A0000116820480140D4E901031843D4E90336A2
:101A10003343184363691843A3691843E3691843C0
:101A2000236A18430843616A042903D1D4E90B13DC
:101A300019430843106020684069666A20F0070176
:101A400030460E43012704280CD1A06A0643E06A01
:101A500040B12046FFF7EAFB20B14020606584F8E2
:101A60003570BAE7206846612046FFF7CBFB94F853
:101A70005C203F2191408160656584F835700020CD
:101A8000ACE700003F8010F070B5044600F090F91C
:101A90000546601C02D004480078044400F088F930
:101AA000401BA042FAD370BDC40100202DE9F047CD
:101AB000204C05464FF40051E07A401CE072A06EC5
:101AC000401CA0661C4800F066F901273E03DFF8C1
:101AD0006C904FF00208102D15D0042D27D184F8FA
:101AE0000C803146484600F051F901281FD10022F0
:101AF0003146484600F057F92770206CBDE8F047A2
:101B0000012104F05DBF3146484600F03FF92773DC
:101B100000280CD184F800800221206C04F050FFD2
:101B200031464846BDE8F047012200F03CB9BDE827
:101B3000F087000000000020001802400000024072
:101B4000044910B50A68024202D00860FFF7AEFFF0
:101B500010BD0000143C01402DE9F84FDFF8F8A15A
:101B60000022012403254FF00F090AF1040BAAF10A
:101B7000040E00BF0B6804FA02F63340B34270D182
:101B80000F7907F00307012F01D0022F16D18768C4
:101B90004FEA420805FA08FC27EA0C07D1F80CC006
:101BA0000CFA08FC4CEA070CC0F808C04768B743B9
:101BB0000E79C6F3001696403E4346600E79F64312
:101BC000B6070AD0C7684FEA420C05FA0CF6B743CD
:101BD0008E6806FA0CF63E43C6600E7906F00306E0
:101BE000022E10D1D60800EB8608D8F820605707DF
:101BF0004FEAD76C09FA0CF7BE430F6907FA0CF7E6
:101C00003743C8F8207006684FEA420C05FA0CF713
:101C1000BE430F7907F0030707FA0CF73743076055
:101C20004E6816F4403F1CD04C4E376847F480474E
:101C30003760366822F0030706F480460096484E67
:101C400007EB060CDCF8086897073F0F09FA07F85E
:101C500026EA0806DFF80C81404503D14FF0000862
:101C600041E072E0DFF80081404502D14FF0010809
:101C700039E0DFF8F880404502D14FF0020832E049
:101C8000DFF8EC80404502D14FF003082BE0DFF88D
:101C9000E480404502D14FF0040824E0DFF8D8800A
:101CA000404502D14FF005081DE0DFF8D0804045E7
:101CB00002D14FF0060816E0DFF8C480404502D19B
:101CC0004FF007080FE0DFF8BC80404502D14FF02D
:101CD000080808E0DFF8B080404502D14FF009085D
:101CE00001E04FF00A0808FA07F848EA0608CCF8BD
:101CF0000888DAF800605746D1F804C09E435FEACE
:101D0000CC2C00D51E433E60DBF800605F46D1F866
:101D100004C09E435FEA8C2C00D51E433E60DEF873
:101D200000607746D1F804C09E435FEA8C3C00D542
:101D30001E433E60084F083F3E68D1F804C09E43F2
:101D40005FEACC3C00D51E433E60521C102AFFF4D3
:101D500011AFBDE8F88F0000083C01404438024054
:101D60000030014000000240000402400008024030
:101D7000000C024000100240001402400018024013
:101D8000001C02400020024000240240006908407C
:101D900000D001207047426921EA02030A4043EA69
:101DA0000241816170470AB1816170470904FBE714
:101DB0000148806870470000C40100200B4810B53E
:101DC000016841F400710160016841F480610160C3
:101DD000016841F480710160032000F09FF80F203A
:101DE00000F006F800F050F8002010BD003C024062
:101DF00030B50546204887B00024016841F0010154
:101E00000160006806A900F00100009001A800F040
:101E100047FE0498B0B100F069FE400017494FF04A
:101E20008042B0FBF1F11648491E026040F2E732F1
:101E3000C0E90324C0E90114846101F0F7FA040049
:101E400003D015E000F052FEE8E70D4801F078FB02
:101E500004000DD11C2000F033F8102D07D2002211
:101E600029461C2000F03AF80648056000E00124ED
:101E700007B0204630BD00004038024040420F000D
:101E800088050020C80100200C4882B0016841F498
:101E900080410160006800F4804000900748001F06
:101EA000016841F0805101600068002200F080501C
:101EB00000900F21901E02B000F010B8443802408C
:101EC000002809DB00F01F02012191404009800039
:101ED00000F1E020C0F8001170470000F0B40E4B94
:101EE0001B680C46C3F30223C3F10705042D00D978
:101EF0000425191D072901D2002300E0DB1E01265D
:101F000006FA05F1491E214099409E40761E164072
:101F10003143F0BC04F049BB0CED00E0064900F091
:101F2000070208684FF6FF03184040EA0220034A00
:101F300010430860704700000CED00E00000FA0557
:101F400070470068416200207047F0B50368586A26
:101F500039B19C6A4FF4827600EB144400204D1E88
:101F60000AE040EA024098620FE006EB8007DF5982
:101F7000401C04EB1744C0B2A842F6D344EA024026
:101F80004FF4807202EB810158500020F0BDD0F870
:101F9000E00403F044BA01EBC10200EB8202D0F886
:101FA000E004126A03F099B901EBC10200EB82026E
:101FB000D0F8E004D2F8602203F0EAB9D0F8E004E7
:101FC00003F02FBA0A0601F00F0101EBC10100EB8B
:101FD000810101D5143101E001F51571006804F0AB
:101FE00011B970B504460B0601F00F0000EBC001FB
:101FF00004EB81014FF001024FF0000502D54A7554
:10200000143103E081F8555201F51571087094F808
:102010009404012808D084F89424206803F00CFE6E
:1020200084F89454002070BD022070BD70B5044641
:1020300001F00F002279904201D9012070BD0B06FA
:1020400001F00F0101EBC10104EB81014FF001022E
:102050004FF0000502D54A75143103E081F855525E
:1020600001F515718D70087094F89404012808D05A
:1020700084F89424206803F051FF84F894540020DD
:1020800070BD022070BD01F00F0101EBC10100EB3A
:102090008100D0F8680270472DE9F04104460F0630
:1020A00001F00F0000EBC00104EB81014FF00106CD
:1020B0004FF0000502D54E75143103E081F85552FA
:1020C00001F51571C2F30A0208708A600B714A7833
:1020D00002B14883022B00D14D7194F89404012879
:1020E00009D084F89464206803F0F8FC284684F84A
:1020F0009454BDE8F0810220FBE710B501F00F0415
:1021000004EBC40100EB8101C1E998230023C1F86D
:10211000683281F8553281F85442837901F515719E
:10212000012B00D1CA618279006803F04FFF0020C3
:1021300010BD70B504460D4601F00F0021798842AC
:1021400001D9012070BD29064FF000064FF00102B1
:1021500006D500EBC00104EB81014A75143107E09C
:1021600005EBC50104EB810181F8556201F515719C
:102170008A70087094F89404012807D084F8942495
:10218000206803F0F7FE280702D007E0022070BDA8
:10219000A17904F29C42206803F094FE84F89464D0
:1021A000002070BD10B501F00F0404EBC40100EB7A
:1021B0008101C1E9082300238B6201234B7501F8DB
:1021C000144F8379012B00D1CA618279006803F032
:1021D000FDFE002010BD00002DE9FC5F05680446EF
:1021E000284604F0ABF800287DD1206804F0D2F82E
:1021F000002878D0D5F80808C0F30D20C4F8D4041E
:10220000206804F0C7F8800704D52068416901F010
:1022100002014161206804F0BDF8C10604F29C404F
:10222000009034D52068816921F0100181612F6A06
:1022300007F00F0000EBC00004EB8006C7F343403B
:1022400006F51576022802D0062811D01AE047F6C6
:10225000F070074216D0C7F30A1217462846F168F5
:1022600004F09CF8F0683844F0607069384408E085
:1022700008222846009904F091F87069C7F30A1102
:10228000084470612068816941F010018161206813
:1022900004F080F800034FF0080B4FF0000A4FF0F5
:1022A00001097CD50026206804F053F8074674E045
:1022B000F80770D0F1B2206804F064F88046C007D7
:1022C00007D005EB4611C1F8089B3146204601F0C6
:1022D00031FF5FEA087024D505EB4611C1F808BB51
:1022E0002068016C00E023E200EB46100191D0F879
:1022F000082BFB4B994205D9110403D54FF400413B
:10230000C0F8081B204600F0F0FAF5490198884211
:1023100007D9A079012804D120680121009A03F08F
:10232000D1FD5FEAC86004D505EB46111020C1F865
:10233000080B5FEA88701DD56869000605D5D5F8D9
:10234000040840F48061C5F8041806EBC60004EBED
:10235000800090F8571200F51570012905D180F81A
:1023600003A0F1B2204600F0E9F905EB4611022086
:10237000C1F8080B5FEA886004D505EB4610202100
:10238000C0F8081B5FEA884005D505EB46104FF4FE
:102390000051C0F8081B7F08761C002F88D12068E8
:1023A00003F0F8FF40036ED5206803F0CBFF07462B
:1023B000002666E0F80762D0F1B2206803F0D0FF93
:1023C0008046C00723D006F00F01D5F8342809FA5B
:1023D00001F18A43C5F8342805EB4611C1F8089984
:1023E000A07901280FD106EBC60004EB8000D0E9EC
:1023F00007211144016236B9606A20B920680121C1
:10240000009A03F05FFDF1B22046FFF7C4FD5FEADA
:10241000087003D505EB4611C1F808B95FEAC8603A
:1024200004D505EB46111020C1F808095FEA4860A1
:1024300004D505EB46104021C0F808195FEA887002
:1024400016D53146284603F04EFF06EBC60004EBD6
:102450008000C17D1430012905D180F803A0F1B2BC
:10246000204600F067F905EB46110220C1F8080983
:102470005FEA086003D53146204601F0C1FE7F08BF
:10248000761C002F96D1206803F084FF002811DA13
:10249000D5F8040820F00101C5F8041894F8CC041C
:1024A00001282BD0204600F005FA2068416901F090
:1024B00000414161206803F06DFF00050BD5D5F8A0
:1024C0000808C00702D0204600F038FA20684169A9
:1024D00001F400614161206803F05CFFC00467D52E
:1024E000D5F8040820F00100C5F804081021206880
:1024F00003F0F9FE00214FF67F3220E084F8CCA4EF
:1025000000212046FFF71CFDCFE700BF05EB41107F
:10251000C0F80829D0F8003923F40013C0F80039B6
:10252000C0F8082BD0F8003B23F40013C0F8003BA0
:10253000D0F8003B43F00063C0F8003B491C207911
:102540008842E3D8D5F81C0840F00111C5F81C18E2
:10255000E07B002828460DD0D0F8840840F00B011D
:10256000C5F88418D5F8440840F00B012846C5F892
:1025700044180DE0D0F8140842F22B010843C5F8C6
:102580001408D5F8100840F00B012846C5F81018BB
:10259000D0F8000820F4FE61C5F80018A179206881
:1025A000009A03F08FFC2068416901F48051416179
:1025B000206803F0EFFE800415D5206803F0CEFA02
:1025C000206803F0AEFEE07100F08AFA0146E2797D
:1025D000206803F041FF204600F056F92068416969
:1025E00001F400514161206803F0D4FE000707D5D3
:1025F000204600F063F92068416901F0080141615B
:10260000206803F0C7FE000616D5A86920F08001F7
:10261000A96101260DE000BF06EBC60004EB8000B7
:1026200090F85702012803D1F1B22046FFF7CAFC07
:10263000761C2079B042EFD8206803F0ABFEC002D0
:102640001FD501264F4614E005EB4610D0F80019BF
:1026500006EBC60004EB8002107E012808D1002999
:1026600006DAF0B240F08001D7752046FFF7AAFCE9
:10267000761C2079B042E7D82068416901F48011C6
:102680004161206803F086FE800234D501204A466D
:1026900029E000BF05EB4011D1F8001B00EBC0039F
:1026A00004EB830393F85862012E1BD1002919DA39
:1026B00094F8D46401F4803106F00106B14211D1DE
:1026C00083F85722A96941F08003AB616969090663
:1026D00008D4D5F8040840F40070C5F8040805E0F3
:1026E0000A30544F401C21798142D3D82068416977
:1026F00001F400114161206803F04CFE400007D551
:102700002046FFF744FC2068416901F080414161A7
:10271000206803F03FFE40070AD520684568680737
:1027200002D52046FFF74AFC2068416829434160F2
:10273000BDE8FC9FD0F8E00402F0CBBED0F8E00486
:1027400002F0DBBEF8B5040005D094F895042668C5
:10275000002510B106E00120F8BD84F8945420460D
:1027600000F056F8032084F89504B6F1A04F00D18C
:10277000A571206803F0A0FB207C8DF8000094E890
:102780000F0003F0F9F90226B8BB0021206803F01E
:1027900024FE90BB002001270DE000BF00EBC0012C
:1027A00004EB81014F750875C8850D76CD610D620A
:1027B000401CC0B24D6221798142EFD8002011E067
:1027C00000EBC00104EB810181F8555281F85402FD
:1027D00081F85852C1F85C52C1F86052401CC0B236
:1027E000C1F8645221798142EAD8207C8DF800003A
:1027F00094E80F0003F0A2FA10B184F89564AAE7F8
:10280000657484F89574206803F08AFA0020F8BD96
:1028100010B586B0044614216846FEF789F81749BA
:102820002068884227D1164C0020216841F002011F
:102830002160216801F0020105914FF440410091AF
:102840000221CDE90110032003900C200490694679
:102850000C48FFF781F9206840F0005020602068A4
:10286000002200F00050059005214D20FFF736FBB7
:102870004D20FFF725FB06B010BD0000000004400E
:10288000303802400004024070B50446C07901258A
:1028900070B1022801D0FEF7FAFC2946D4F8E00412
:1028A00002F099FED4F8E004BDE8704002F04EBE9C
:1028B0000025F2E7D0F8E00402F076BED0F8E0049C
:1028C00002F07CBE10B5044690F8940401280AD0AA
:1028D000012084F894046174206803F0ACFD0020AA
:1028E00084F8940410BD022010BDD0F8E02400F25A
:1028F0009C41104602F07BBE10B50446006894F877
:102900009414012909D0012184F89414C16849065E
:1029100009D5617B012902D005E0022010BD816B41
:1029200041F480318163206803F0BBFC206803F030
:10293000E9F9002084F8940410BD000010B50446A5
:10294000D0F8E00402F095FE2068D0F8001E41F0B7
:102950000101C0F8001EE07A002804D00248016896
:1029600041F00601016010BD10ED00E02DE9F047D7
:102970000E46050065D0DFF81481D8F80000F7B2E4
:1029800000F00F00B04207D288F80070D8F80000BD
:1029900000F00F00B04254D128683D4C810712D599
:1029A000400703D5206840F4E050206028780007F5
:1029B00003D5206840F4604020602068A96820F0BA
:1029C000F000084320602878C0072DD0304968689F
:1029D0000839012812D0022813D0032811D0096821
:1029E000890700292DDA216821F0030101432160C4
:1029F000FFF7DEF9814641F2883A0EE00968890363
:102A0000EFE709688901ECE7FFF7D2F9A0EB0901CC
:102A1000514502D90320BDE8F0872068696800F0BD
:102A20000C00B0EB810FEFD1D8F80010404601F058
:102A30000F01B14207D90770006800F00F00B042E3
:102A400001D00120E7E72878400705D52068E9682C
:102A500020F4E050084320602878000706D520685D
:102A6000296920F4604040EAC100206000F04EF87F
:102A70002168084AC1F30311515CC8400649086047
:102A800006480068FFF7B4F90020C4E7003C0240A4
:102A9000083802403C970008D0010020C8010020FF
:102AA0000F2202600C4A136803F0030343601368AB
:102AB00003F0F0038360136803F4E053C36012680B
:102AC0004FF4E05303EAD20202610448006800F0C8
:102AD0000F0008607047000008380240003C0240C8
:102AE0000148006870470000D001002004480549F3
:102AF00000680968044AC1F38221515CC8407047EC
:102B0000D0010020083802404C970008154810B545
:102B1000006810F00C02144813D04110042A0FD0A2
:102B2000082A0ED10F4C241F2268236802F03F02AE
:102B30005B0207D52068C0F38810A0FB010106E006
:102B4000084610BD2168C1F38811A1FB00010023D4
:102B5000FDF72AFC2168C1F30141491C4900B0FB83
:102B6000F1F010BD083802400024F4002DE9F84FC0
:102B700004006ED02078DFF84C93C007A9F104055B
:102B80004AD009F104000168C1F38101012908D08C
:102B90000068C0F3810002280AD1D9F80000400281
:102BA00006D52868800337D560680028E1D033E077
:102BB0006068B0F5803F10D0B0F5A02F286810D025
:102BC00020F480302860286820F480202860606825
:102BD000A8B1FFF7EDF806460DE0286840F4803014
:102BE000F4E740F480202860F7E700BFFFF7E0F843
:102BF000801B642873D828688003F7D50CE0FFF7A2
:102C0000D7F8064605E000BFFFF7D2F8801B64281E
:102C1000F0D828688003F7D42078DFF8AC828007EA
:102C20004FF0000A3ED5A748001D016811F00C0FB7
:102C300008D00068C0F3810002280BD1D9F8000049
:102C4000400207D42868800716D5E068012800D123
:102C500012E033E1E068B8B10120C8F80000FFF7E6
:102C6000A7F8064605E000BFFFF7A2F8801B022880
:102C7000C0D828688007F7D52868216920F0F800B7
:102C800040EAC10028600DE0C8F800A0FFF790F806
:102C9000064604E0FFF78CF8801B02281FD828683E
:102CA0008007F7D42078000722D5864F87486169CE
:102CB000703771B101210160FFF77AF8064604E030
:102CC000FFF776F8801B022809D838688007F7D507
:102CD0000EE0C0F800A0FFF76BF8064605E082E0C2
:102CE000FFF766F8801B02287DD838688007F7D484
:102CF0002078400768D5DFF8CCB100270BF13C0BFA
:102D0000DBF80000C0000BD4DBF8001041F080516C
:102D1000CBF80010DBF80000012700F08050009095
:102D20006B4E3068C00510D4306840F4807030605D
:102D3000FFF73EF8009005E0FFF73AF80099401AD7
:102D4000022850D83068C005F6D55E4EA0686C36B3
:102D500001280FD00528306810D020F00100306025
:102D6000306820F004003060A068B8B1FFF720F8A8
:102D700000900FE0306840F00100F4E740F00400FC
:102D80003060F7E7FFF714F80099411A41F28830F4
:102D9000814266D830688007F4D50EE0FFF708F866
:102DA000009007E0FFF704F80099411A41F28830DB
:102DB000814256D830688007F4D42FB1DBF8001078
:102DC00021F08051CBF80010A069C8B33D49091D1E
:102DD0000968C1F3810102294AD00228504607D070
:102DE000C8F8600000E03CE0FEF7E2FF04463BE08C
:102DF0004746C8F86000FEF7DBFF064605E000BF67
:102E0000FEF7D6FF801B02282BD828688001F7D454
:102E1000D4E907010843A16A2E4A490802EB01419F
:102E2000626A41EA8211084394F82C1040EA016179
:102E3000C9F8001001203866FEF7BAFF044606E024
:102E40003EE000BFFEF7B4FF001B022809D8286847
:102E50008001F7D534E000BFFEF7AAFF001B02286F
:102E600002D90320BDE8F88F28688001F4D427E058
:102E70000128F7D0D9F80000E26900F480019142FE
:102E80001CD1226A00F03F01914217D147F6C07170
:102E9000626A0140B1EB821F10D1A26A4FF0FF338A
:102EA00000F4403103EB5202B1EB024F06D194F82B
:102EB0002C1000F07060B0EB016F01D00120D1E761
:102EC0000020CFE70438024000004742800E47420E
:102ED000007000400000FFFF70B5040009D0606A78
:102EE000002540B125616561A56294F8510040B1AB
:102EF0000CE0012070BD6068B0F5827FF4D0E56120
:102F0000F2E784F85050204600F044F8022084F89C
:102F100051002068016821F040010160A0882189EA
:102F200000F4827001F404410843A18901F40061B6
:102F30000843217C01F002010843217D01F00101D9
:102F40000843218B01F400710843217F01F038010F
:102F5000084394F8201001F080010843218D01F40A
:102F60000051084321680860A069042101EA10406B
:102F700094F8241001F0100108432168486020688B
:102F8000C16921F40061C1616565012084F85100C7
:102F9000002070BD10B586B0044614216846FDF7C8
:102FA000C7FC14492068884221D1134800210268D7
:102FB00042F400420260006800F4004005900E48B0
:102FC0001038026842F004020260006800F0040059
:102FD00005904FF4E05000900220CDE9010103205C
:102FE00003900620049069460448FEF7B5FD06B03C
:102FF00010BD0000003C0040403802400008024084
:103000002DE9F84F044690F851001D4616460F462C
:10301000012838D160684FF00408B0F5827F01D1F3
:10302000A06830B3FEF7C4FE8246002F75D0002E94
:1030300073D094F85000012825D04FF0010984F88E
:10304000509084F851804FF00008C4F85480A76372
:10305000A687E687C4F83080A4F83480A4F83680C8
:10306000C4F84080C4F84480A068B0F5004F0CD08C
:1030700015E084F85180009313460A46204600F07C
:1030800069F8BDE8F88F0220FBE72068016821F0AD
:10309000400101602068016821F4804101602068DE
:1030A0000168490603D4016841F040010160E0680D
:1030B000C0B134E020688168C90709D0007BA16BEA
:1030C0000870A06B401CA063E08F401EE08709E001
:1030D000FEF76EFEA0EB0A00A84202D3681C01D0E6
:1030E00032E085B3E08F0028E4D11BE020688168DE
:1030F000C90709D0C068A16B0880A06B801CA063C1
:10310000E08F401EE0870AE0FEF752FEA0EB0A00C7
:10311000A84203D3681C02D016E012E09DB1E08FF4
:103120000028E3D152462946204601F0C3F808B1F1
:103130002020606584F8519084F85080606D0028EC
:103140009FD001209DE7FFE784F8519084F85080DC
:10315000032096E72DE9FF4F81B01D4693460446B4
:103160004FF001090E9EFEF723FE074694F851002A
:103170006168012806D0B1F5827F3CD1A168C9BB46
:10318000042838D10298002871D0BBF1000FFBD081
:10319000002DF9D094F8500001282CD04FF0010AEE
:1031A00084F850A094F85100042802D0052084F837
:1031B00051004FF00008C4F85480C4F838B0E587D7
:1031C000A58702992163E586A586C4F84080C4F8E6
:1031D000448020680168490603D4016841F0400139
:1031E0000160E068B0F5006F606808D0F0B3012DB1
:1031F00049D081E0FFE7022005B0BDE8F08F08B1BB
:10320000012D39D1206B21680088C860206B801C9B
:103210002063E08E401EE0862EE0206881688907EA
:103220000FD5E18E69B1B9F1010F0AD1216B09887F
:10323000C160206B801C2063E08E401EE0864FF052
:10324000000920688168C9070CD0E18F51B1C068BE
:10325000A16B0880A06B801CA063E08F401EE087FC
:103260004FF00109FEF7A4FDC01B01E00BE067E091
:10327000B04201D3701C50D1E08E0028CDD1E08F38
:103280000028CAD13EE0206B216800780873206BCB
:10329000401C2063E08E401EE0862DE0206881689F
:1032A00089070FD5E18E69B1B9F1010F0AD1216B00
:1032B00009780173206B401C2063E08E401EE0867D
:1032C0004FF0000920688168C9070CD0E18F51B127
:1032D000C068A16B0870A06B401CA063E08F401E0B
:1032E000E0874FF00109FEF763FDC01BB04202D337
:1032F000701C01D011E086B1E08E0028CED1E08FA5
:103300000028CBD13A463146204601F001F850B1B1
:103310002020606584F8508012E084F851A084F881
:103320005080032068E7A06818B92068C1688068E9
:10333000009084F851A084F85080606D0028F1D08E
:10334000012059E77047704710B590F83C20012ADA
:1033500022D0012280F83C20CA688C6822F4407296
:1033600022434C6822F4806222430C6822F40062FB
:1033700022430C6922F4805222434C6922F4005209
:103380002243C969002322F480420A4301684A6447
:1033900080F83C30002010BD022010BD70B590F8C0
:1033A0003C20012A32D0012480F83C40022280F8DF
:1033B0003D2003685A689D6822F070060A6832430F
:1033C0005A60134B02689A4214D0B2F1804F11D068
:1033D000104B9A420ED0104B9A420BD00F4B9A4290
:1033E00008D00F4B9A4205D00E4B9A4202D00E4B9A
:1033F0009A4204D1496825F080031943916080F80E
:103400003D40002180F83C10084670BD022070BD90
:10341000000001400004004000080040000C004093
:1034200000040140004001400018004010B50400B5
:1034300003D094F83D0010B107E0012010BD00203A
:1034400084F83C00204600F01FF8022084F83D007C
:10345000211D206801F01EF9012084F8460084F83F
:103460003E0084F83F0084F8400084F8410084F86E
:10347000420084F8430084F8440084F8450084F84E
:103480003D00002010BD000008B5016827488142BA
:103490000FD12748016841F0010101600068002256
:1034A00000F00100009005211920FEF717FD1920FA
:1034B00036E01F481F4A001F91420ED1016841F0BB
:1034C000020101600068002200F002000090052166
:1034D0001D20FEF703FD1D2022E0174A91420ED168
:1034E000016841F0040101600068002200F004005E
:1034F000009005211E20FEF7F1FC1E2010E00F4A6F
:10350000914211D1016841F0080101600068002278
:1035100000F00800009005213220FEF7DFFC322089
:10352000BDE80840FEF7CCBC08BD0000000001402B
:10353000443802400004004000080040000C0040F5
:1035400090F83D10012901D001207047022180F838
:103550003D100168CA6842F00102CA600068114962
:10356000884214D0B0F1804F11D00F4988420ED05C
:103570000E4988420BD00E49884208D00D49884236
:1035800005D00D49884202D00C49884204D1816897
:1035900001F00701062903D0016841F00101016033
:1035A0000020704700000140000400400008004077
:1035B000000C0040000401400040014000180040A1
:1035C0000168CA6822F00102CA6001680A6A41F211
:1035D00011131A4207D10A6A9B101A4203D10A68D2
:1035E00022F001020A60012180F83D10002070479E
:1035F00070B5044690F83C000025012817D001263C
:1036000084F83C60022084F83D002068826822F043
:10361000770222F47F4282600868502838D00DDC9F
:1036200020284FD005DC90B3102811D14AE00220A9
:1036300070BD302846D040280AD13BE060282FD00A
:1036400070280DD0B0F5805F03D0B0F5005F12D0C8
:10365000012584F83D60002084F83C00284670BDB8
:10366000CB68D1E90121206801F08DF820688168DC
:1036700041F0770109E0CB68D1E90121206801F030
:1036800082F82068816841F480418160E1E719E0B7
:10369000CA684968206801F04BF95021206806E0AB
:1036A000CA684968206801F054F96021206801F077
:1036B00074F8CEE7CA684968206801F039F94021FA
:1036C0002068F4E7226801461046F0E770472DE9CC
:1036D000F04104460068C66805694FF00007A90775
:1036E00013D5B10711D5F91E01610120207720689B
:1036F00080698007204602D0FFF7E8FF04E000F071
:10370000C1F8204600F053F92777680716D57007EF
:1037100014D521686FF0040008610220207720682A
:10372000806910F4407F204602D0FFF7CFFF04E00D
:1037300000F0A8F8204600F03AF92777280715D5B9
:10374000300713D521686FF0080008610420207746
:103750002068C0698007204602D0FFF7B7FF04E069
:1037600000F090F8204600F022F92777E80616D5F9
:10377000F00614D521686FF010000861082020774A
:103780002068C06910F4407F204602D0FFF79EFFFA
:1037900004E000F077F8204600F009F92777E80701
:1037A00008D0F00706D021686FF0010008612046BC
:1037B00000F0A0F9280608D5300606D521686FF07C
:1037C000800008612046FFF7BDFD680608D5700639
:1037D00006D521686FF040000861204600F0DEF950
:1037E000A8060AD5B00608D521686FF02000086148
:1037F0002046BDE8F041FFF7A6BDBDE8F08100001E
:1038000010B586B0044614216846FDF791F8236888
:10381000174C002117480222A34211D1036843F03C
:1038200001030360006800F001000590D0010090E2
:10383000CDE901210120CDE9031069460E4812E0CF
:103840000E4CA34211D1036843F0040303600068E7
:1038500000F00400059040200090CDE90121CDE961
:10386000031269460648FEF777F906B010BD00005E
:1038700000000140303802400000024000040040D7
:1038800000080240704770B5044690F83C000026DE
:103890000D4601280FD0012084F83C006AB1042AAB
:1038A0001DD0082A2FD00C2A3FD00126002084F8F2
:1038B0003C00304670BD022070BD206800F076FFED
:1038C0002068816941F0080181612068816921F0E7
:1038D00004018161206881692A69114311E020682F
:1038E00000F094FF2068816941F4006181612068E3
:1038F000816921F480618161206881692A6941EAD6
:1039000002218161D2E7206800F0B6FF2068C1691A
:1039100041F00801C1612068C16921F00401C16161
:103920002068C1692A69114311E0206800F0D8FFBE
:103930002068C16941F40061C1612068C16921F456
:103940008061C1612068C1692A6941EA0221C161BF
:10395000ACE710B5040003D094F83D0010B107E0C7
:10396000012010BD002084F83C00204600F01EF825
:10397000022084F83D00211D206800F08BFE01200C
:1039800084F8460084F83E0084F83F0084F8400044
:1039900084F8410084F8420084F8430084F844002D
:1039A00084F8450084F83D00002010BD7047704742
:1039B00010B50446022249B104290ED0082913D0BB
:1039C00094F84100012816D0012010BD94F83E0063
:1039D0000128F9D184F83E200FE094F83F00012837
:1039E000F2D184F83F2008E094F840000128EBD1A0
:1039F00084F8402001E084F841200122206800F092
:103A0000B5FE16492068164A884201D0904203D17B
:103A1000436C43F4004343642068884213D0B0F100
:103A2000804F10D00F4988420DD00F4988420AD0EC
:103A30000E49884207D0904205D00D49884202D0F5
:103A40000C49884204D1816801F00701062903D09E
:103A5000016841F001010160002010BD000001403B
:103A6000000401400004004000080040000C004039
:103A7000004001400018004030B504460D46006883
:103A8000002200F073FE194B41F2111120688A10D8
:103A9000984202D0164B984209D1036A0B4206D1D4
:103AA000036A134203D1436C23F400434364206848
:103AB000036A0B4206D1016A114203D1016821F069
:103AC0000101016001203DB1042D08D0082D09D06D
:103AD00084F84100002030BD84F83E00FAE784F805
:103AE0003F00F7E784F84000F4E7000000000140E1
:103AF0000004014030B42549234B0268086C9A4207
:103B000017D1CA6A521CCA62214A1278012ACA6AAB
:103B100007D0A2F56853983B33D103220A701146AF
:103B200024E0A2F51C53103B2BD104220A7011464D
:103B30001CE0184B9A4224D10A6B521C0A634B6B4F
:103B40000A2293FBF2F402FB143292B14FF4FA64AE
:103B500063436FF07C04624303EBC2024A670A6B63
:103B60004B6F9A420DD305220A70114630BC02F009
:103B700027BF03EB4302C2EBC312074B03EB021256
:103B8000ECE730BC7047000000000140000000205E
:103B900010050020000C0040F0D8FFFF7047FEE742
:103BA0008079024951F820000047000050010020B0
:103BB000F0B500230A24302537261F4611E000BF48
:103BC000B4EB107F02D905EB107C01E006EB107C12
:103BD00001F813C001EB430C00015B1C8CF8017071
:103BE000DBB29342ECD3F0BD7FB5002415480094BE
:103BF000019402941249039401604FF48031C0E9AA
:103C0000011401250461057680F820400E49C0E9C1
:103C10000A14C561C46080F830504561FDF788FC26
:103C200008B172B6FEE70620CDE9000569460294A8
:103C30000448FDF72FFB002801D072B6FEE77FBDD8
:103C400000210140E40200200100000F7FB50024A4
:103C500015480094019402941249039401604FF4B2
:103C60008031C0E9011401250461057680F8204007
:103C70000E49C0E90A14C561C46080F8304045614E
:103C8000FDF756FC08B172B6FEE70320CDE900054A
:103C9000694602940448FDF7FDFA002801D072B687
:103CA000FEE77FBD002201402C0300200100000F31
:103CB0002DE9F04F87B014216846FCF739FE5A48C9
:103CC0000024016841F004010160016801F0040171
:103CD0000591016841F020010160016801F02001B7
:103CE0000591016841F080010160016801F08001E7
:103CF0000591016841F001010160016801F00101D5
:103D00000591016841F010010160016801F01001A6
:103D10000591016841F002010160016801F00201B2
:103D20000591016841F0400101600068DFF8FC90F6
:103D300000F040000590002280214846FEF733F84D
:103D4000DFF8ECA04FF4AE46002231465046FEF7B5
:103D50002AF846F2A027002239463648FEF723F813
:103D6000DFF8D4B04FF41448002241465846FEF71D
:103D70001AF84FF4804000900125CDE901546946BE
:103D80002E480394FDF7E8FE0095CDE901546946FD
:103D900048460394FDF7E0FE142000904FF488108D
:103DA000CDE9010569464846FDF7D6FE8020009022
:103DB000CDE90154694648460394FDF7CDFE0096CF
:103DC000CDE90154694650460394FDF7C5FE0097BE
:103DD000CDE90154694617480394FDF7BDFECDF8BF
:103DE0000080CDE90154694658460394FDF7B4FEBE
:103DF000E802CDE900050394694602940D48FDF7F9
:103E0000ABFE002205210820FEF768F80820FEF727
:103E100057F8002205210A20FEF760F80A20FEF775
:103E20004FF807B0BDE8F08F303802400014024070
:103E3000001002400018024000000240000802404A
:103E40000F4810B50D4901604FF4827141600021A7
:103E50008160C1604FF400720161C0E90512202247
:103E6000C0E90721416281620A21C162FFF734F88B
:103E7000002801D072B6FEE710BD0000003C0040F3
:103E80007403002010B596B000240F941094119480
:103E9000129413941C2108A81494FCF749FD2021C6
:103EA0006846FCF745FD2948274901604721C0E9DC
:103EB00001144FF6FF71C0E903148021C0E90541E8
:103EC000FFF7B4FA08B172B6FEE74FF480500F90D6
:103ED0000FA91E48FFF78CFB08B172B6FEE71B481E
:103EE000FFF737FD08B172B6FEE7139413A9174820
:103EF0001494FFF753FA08B172B6FEE76020CDE9DB
:103F000008040A940B940C940D94002208A90F48FD
:103F10000E94FFF7B8FC08B172B6FEE700944FF4B8
:103F20000050CDE904400294019403946946074887
:103F30000794FFF709FA08B172B6FEE70348FFF7E6
:103F40005FFC16B010BD000000000140CC03002053
:103F500010B58EB000240794089409940A940B9429
:103F60001C2168460C94FCF7E3FC1F481D490160C6
:103F70004721C0E9011440F2CF71C0E90314802148
:103F80008161FFF753FA08B172B6FEE74FF4805033
:103F9000079007A91448FFF72BFB08B172B6FEE79C
:103FA0001148FFF7D6FC08B172B6FEE70B940BA9D7
:103FB0000D480C94FFF7F2F908B172B6FEE76020E5
:103FC000CDE9000402940022694607480494FFF7F3
:103FD0005AFC08B172B6FEE70348FFF711FC0EB0B9
:103FE00010BD0000000400401404002010B586B08D
:103FF00000241748009401940294039404941349F4
:10400000059401604FF6FF71C0E9011440F24A4186
:10401000C0E903148461FFF709FA08B172B6FEE73C
:104020004FF48050009069460948FFF7E1FA08B163
:1040300072B6FEE7049404A905480594FFF7AEF9AB
:10404000002801D072B6FEE706B010BD000800409F
:104050005C04002010B586B0002417480094019439
:104060000294039404941349059401604721C0E924
:1040700001144FF6FF71C0E9031480218161FFF73D
:10408000D5F908B172B6FEE74FF48050009069464A
:104090000948FFF7ADFA08B172B6FEE7049404A927
:1040A00005480594FFF77AF9002801D072B6FEE7BB
:1040B00006B010BD000C0040A404002010B5012281
:1040C0000F49104801F0E4F808B1FDF7E0F80E4997
:1040D0000C4801F0FAFA08B1FDF7D9F80B49094884
:1040E00000F07AFE08B1FDF7D2F8064801F070FB47
:1040F000002803D0BDE81040FDF7C9B810BD00008E
:1041000060010020D0050020AC020020B00100209A
:104110004079024951F8200000470000F4000020D7
:10412000FEE7FEE7704700000148FEF755B80000C3
:10413000CC1C00202DE9F04103680D4604461E6C9E
:1041400003EB4511D1F8080B94F806E04FF4004753
:104150004FF0200C04F29C42BEF1010F09D0DFF8B1
:1041600098E0764539D1020432D500BFC1F8087B0A
:104170003FE0224B5FEA007E04D59E4239D900041D
:10418000F4D436E05FEA806E02D5C1F808CB30E0A7
:1041900010F0280F2DD19E4201D90004E6D405EB82
:1041A000C50004EB8000D1F8101BD0F87432C1F3C5
:1041B0001201591AC0F8681200F51570ADB90369FB
:1041C0001BB1C2681144C1600FE0012120680AE000
:1041D00080060AD5C1F808CB07E035B9D4F86402E7
:1041E00018B90021184601F06DFEE9B22046FDF72E
:1041F000DBFE0020BDE8F0810A31544F0A30544FF5
:104200002DE9F84F0E4601EBC60100EB8104814613
:104210000568D4E909101434884202D90120BDE8A8
:10422000F88F081AA168814200D20846C01C87088E
:1042300005EB46181BE000BFA0EB010AA068504543
:1042400000D282460AF10300870899F80600009020
:104250001FFA8AF3F2B22846E16802F071F9E168C8
:1042600001EB0A00E060616901EB0A006061D8F8C7
:10427000180980B2B84205D3D4E90401814201D2C1
:104280000028D9D1D4E90401884208D806F00F01EA
:1042900001208840D5F834188143C5F8341800202F
:1042A000BDE700000079024951F8200000470000F6
:1042B0001C010020F8B5044640684FF48273984210
:1042C00021D1A0684FF48065B0F5004F01D0A8421D
:1042D0000AD12068066826F04006066060689842A9
:1042E00011D1A068A8420ED000920B460022802176
:1042F000204600F043F8002804D0606D40F0200014
:1043000060650320F8BD00920B4600220121EFE713
:10431000F8B515460E460B460092044601220221CE
:1043200000F02CF8A0B9134813490068B0FBF1F075
:104330004FF47A71484300906068B0F5827F0DD1E8
:104340003346002280212046009500F017F870B116
:10435000606D40F0200060650320F8BD009830B12A
:10436000401E009020688068C0430006F6D50020FB
:10437000F8BD0000D001002000366E012DE9F843A1
:104380001E46914688460446089DFDF711FD401BD8
:10439000351AFDF70DFD074625480068C0F3CB3000
:1043A000684338E0701C37D0FDF702FDC01BA842FF
:1043B00003D215B1009860B32CE02068416821F069
:1043C000E00141606068B0F5827F0BD1A068B0F574
:1043D000004F02D0B0F5806F04D12068016821F051
:1043E00040010160A06AB0F5005F09D12068016852
:1043F00021F4005101602068016841F4005101601E
:10440000012084F85100002084F850000320BDE80A
:10441000F8830025401E00902068816838EA01007A
:1044200004D000214945BDD10020F0E70121F9E782
:10443000D00100200178407841EA002070477047A1
:1044400086B001258DF81050224CAE1E04E000BF4E
:104450009DF81000012806D1A5703346002204A95A
:10446000A06D02F0F3F900221146012002F0E2FAF9
:104470009DF8101021660128EAD0164968463831A7
:1044800003F0D6FA03F0E4FC6846FCF7C3F981B206
:104490006846FCF79BFE03F0FBFCA06B0E49A0678F
:1044A00090FBF1F0A063E067617A01290DD1216FE3
:1044B000884209DB0220E07160790521401C6071AF
:1044C000206C02F07DFA00E0E571642002F082F9D0
:1044D000BEE7000000000020A08601000EB5FFF737
:1044E000EDFD00200090019004208DF808000120CF
:1044F00006498DF8060032204870694602A803F08C
:1045000091FB012002F066F9F7E70000EC040020BF
:1045100086B005201B4C8DF80000831F00226946E1
:10452000606D02F093F9184E4FF4FA7703F022FB16
:104530000546034615A20F2102A8FBF7ADFF03F0C5
:1045400087FC02A8FCF766F981B202A8FCF73EFEE0
:1045500003F09EFC207A01280AD19DF800008542D4
:1045600001DA012200E0002220213046FDF71BFC89
:1045700000231A466946606D02F068F9384602F079
:1045800029F9D3E700000020001802402A544550C2
:104590003A2564230000000010B54FF0E0200069C8
:1045A00004F0C0FA012803D0BDE8104003F088BE33
:1045B00010BD000030B593B030216846FCF7B8F963
:1045C00014210CA8FCF7B4F91D480025016841F03E
:1045D00080510160006800F0805011901948016816
:1045E00021F4404141F4804101600068022400F45C
:1045F0004040119001200090000401908001CDE91D
:104600000640042008904820CDE9090403200B90BF
:104610006846FEF7ABFA08B172B6FEE70CA90F20A8
:1046200081E831004FF48050CDE90F0502210CA83C
:10463000FEF79CF9002801D072B6FEE713B030BD3A
:1046400040380240007000400248016841F47001A7
:104650000160704788ED00E00148FFF738B80000BE
:10466000CC0300200148FFF732B800008805002085
:104670000148FFF72CB80000140400200148FFF7A0
:1046800026B800005C0400200148FFF720B80000B5
:10469000A4040020F0B50268294C2A4D2A4E2B4F65
:1046A0002B4B4FF0804CA04209D0604507D0A84268
:1046B00005D0B04203D0B84201D0984204D122F0D4
:1046C000700E4A6842EA0E02A0421BD0604519D023
:1046D000A84217D0B04215D0B84213D0984211D09A
:1046E0001C4DA8420ED01C4DA8420BD01B4DA84219
:1046F00008D01B4DA84205D01A4DA84202D01A4D31
:10470000A84203D122F44075CA682A434D6922F0B9
:1047100080022A4302608A68C2620A688262A042FA
:1047200001D0984201D10969016301214161016908
:10473000C90703D0016921F001010161F0BD00004A
:10474000000001400004004000080040000C004050
:104750000004014000400140004401400048014085
:1047600000180040001C00400020004010B501F07F
:104770001F030121046A99408C430462016A9A4034
:104780001143016210BD10B5846842EA032224F48B
:104790007F440A432243826010BD826822F0700287
:1047A0000A4342F00701816070470000F0B5036AD8
:1047B000026A22F00102026242688469124E24F009
:1047C00073050C682C4323F002058B682B430D4DB9
:1047D000A84201D0B04205D123F00807CB683B4383
:1047E00023F00403A84201D0B04205D14D6922F460
:1047F000407215438A692A43426084614968416373
:104800000362F0BD0000014000040140F0B5026AFF
:10481000036A23F010030362436884690D6824F47B
:10482000E64444EA05248D6822F0200242EA05129B
:104830000F4D104EA84201D0B04206D1CF6822F0F1
:10484000800242EA071222F04002A84201D0B042A0
:1048500007D14D6923F4406343EA85038D6943EA38
:10486000850343608461496881630262F0BD000092
:104870000000014000040140F0B5026A036A23F41D
:10488000807303624368C46922F4007224F07305E4
:104890000C68124E2C438D6842EA05220E4DA84248
:1048A00001D0B04206D1CF6822F4006242EA07226A
:1048B00022F48062A84201D0B04207D14D6923F4AE
:1048C000405343EA05138D6943EA05134360C4610D
:1048D0004968C1630262F0BD00000140000401406C
:1048E00030B5046A026A22F4805202624268C369E7
:1048F0000D6823F4E64343EA05238D6824F400544D
:1049000044EA0534084DA84202D0084DA84204D11B
:104910004D6922F4804242EA85124260C3614968CF
:104920000164046230BD0000000001400004014049
:1049300010B5036A046A24F001040462846924F057
:10494000F00444EA021423F00A020A43846102627A
:1049500010BD10B5036A046A24F01004046284696F
:1049600023F0A00324F4704444EA023243EA011124
:104970008261016210BD000000B52F4887B0C27B84
:10498000C16B914203D0002101634173C2632A4984
:104990004FF47A738031012A01D0DAB13FE0427BD3
:1049A0001AB1427BD20704D012E0006BB0FBF3F0E7
:1049B0000AE0427B006B520802EB82025200B0FB1D
:1049C000F3F0904202DD801A401C00E001204860B4
:1049D0004B681FE0427B1AB1427BD20704D013E040
:1049E000006BB0FBF3F00CE0427B006B520802EB73
:1049F00082025200B0FBF3F0904201DD801A00E029
:104A000000204A68101A08600B68002B01DD5B1E4D
:104A100000E0002309A219216846FBF73DFD03F0E1
:104A200017FA6846FBF7F6FE81B26846FCF7CEFB44
:104A300003F02EFA07B000BD000000202A444953BD
:104A40003A2564230000000070472DE9F0410C4630
:104A5000D0F8D412D0F8C82200EB8101D1F8C012EE
:104A600029B304F00F0606EB860300EB830500274D
:104A7000AB694BB106EBC60602EB8602D269B3FB0B
:104A8000F2F602FB1632A2B1C1F81472D0F8D422A9
:104A900000EB8200D0F8C40203692BB1D1F8080200
:104AA000224601F5047198470020BDE8F0810320FB
:104AB000FBE700231A462146AF6100F0E7FDF3E76C
:104AC00070B50546D0F8D40205EB8000D0F8C0429E
:104AD00094B1284600F0B4FCC4F80C02D5F8D41206
:104AE000D4F8040205EB8101D1F8C412CA6804F5B8
:104AF00003719047002070BD032070BD70B5224D3A
:104B00000446297800F0E0FB2878002600F00F002A
:104B100000EB800004EB800086846978204600F07A
:104B2000D3FB687800F00F0000EB800004EB8000FE
:104B3000A0F86461A978204600F0C6FBA87800F0D0
:104B40000F0000EB800004EB80008684C684D4F85C
:104B5000D40204EB8000D0F8C01299B1D0F8C4029E
:104B600040688047D4F8D40204EB8000D0F8C0023B
:104B700000F0AFFFD4F8D40204EB8000C0F8C062AC
:104B8000C4F8BC62002070BD5802002010B5D0F8F7
:104B9000D41200EB8100D0F8C04284B1D0F8C41226
:104BA00059B194F80002FF2807D08B6894F80122CD
:104BB00021469847FF2084F80002002010BD032002
:104BC00010BD00000A210180004870475C020020EF
:104BD00070B5064682210C4800F086FA0546012190
:104BE000094800F081FA04468121074800F07CFA68
:104BF0000DB11021A971402104B1A18000B18180C3
:104C000043203080004870BD6802002070B5064621
:104C100082210D4800F068FA054601210A4800F09B
:104C200063FA04468121084800F05EFA0DB11021B4
:104C3000A9714FF4007104B1A18000B181804320BB
:104C40003080014870BD00006802002070B5064643
:104C500082210C4800F048FA05460121094800F07D
:104C600043FA04468121074800F03EFA0DB11021B5
:104C7000A971402104B1A18000B18180432030801E
:104C8000004870BD680200202DE9F04704464FF44B
:104C90000775284600F01EFF06004FF0000863D09D
:104CA0002946FBF745FED4F8D4023C4D04EB8000C6
:104CB0004FF01009C0F8C062C4F8BC62207C4FF409
:104CC000007A0127F0B3402302222978204600F021
:104CD00028FC2878402300F00F0000EB800004EB54
:104CE0008000878402226978204600F01AFC6878E8
:104CF000082300F00F0000EB800004EB800003228B
:104D0000A0F86471A978204601F00F0101EB810140
:104D100004EB8101A1F82690A97800F002FCA878A4
:104D200000F00F0000EB800004EB80008784C6F8E1
:104D30000482D4F8D402474604EB8000D0F8C402C1
:104D4000006800E018E006F501768047376177617A
:104D500032687AB1207CF8B140236978204600F0AF
:104D6000ECFB0020BDE8F087D4F8D41204EB8101FD
:104D7000C1F8C0820220F5E7534602222978204676
:104D800000F0CFFB2878534600F00F0000EB8000C6
:104D900004EB80008784A5E75346DEE75802002035
:104DA00010B5D0F8D41200EB8101D1F8C01259B17E
:104DB000027C084C002AD1F8042207D040236178F5
:104DC00000F0BBFB002010BD032010BD4FF40073AA
:104DD000F5E700005802002039B1D0F8D42200EBEA
:104DE0008200C0F8C4120020704703207047D0F83A
:104DF000D42200EB8200D0F8C00218B1C0F804122F
:104E00000020704703207047D0F8D43200EB8300B5
:104E1000D0F8C00228B1C0F81022C0F80812002053
:104E20007047032070472DE9FC410646D0F8D402B4
:104E30000C4606EB80000021D0F8C0728DF80010FF
:104E4000ADF804100D4637B1217811F060022FD073
:104E5000202A4BD102E00320BDE8FC81E288F2B1B8
:104E600009060DD5D0F8C40263783946D0F808C0D9
:104E70001846E047E288072A00D9072239462DE084
:104E8000607887F80002E088402800D34020C2B252
:104E900087F801223946304600F081F82BE0D0F83F
:104EA000C40263780022866821461846B04722E093
:104EB000607830B101281ED00A2809D00B2815D1FE
:104EC00010E096F89C02032810D1022201A905E007
:104ED00096F89C02032809D101226946304600F069
:104EE00078F808E096F89C02032804D02146304662
:104EF00000F04AF803252846AEE7000010B5D0F8C8
:104F0000D41200EB8101D1F8C02201211AB1D2F8EC
:104F1000143213B116E0032010BD0121C2F814129F
:104F20000949D2F81032097801F00F0404EB840427
:104F300000EB8404A361D2F81032D2F8082200F00A
:104F4000A5FB0021084610BD5802002010B5D0F87E
:104F5000B82200245268904700B10324204610BDB7
:104F60000020704700207047134610B50A46002104
:104F700000F0E3FA002010BD134610B50A460021E8
:104F800000F084FB002010BD10B50446802100F025
:104F90005EFB2046BDE81040002100F058BB10B574
:104FA0000323C0F89432C0F858211346C0F85C219E
:104FB0000A46002100F0C1FA002010BD10B50521FD
:104FC000C0F8941200231A46194600F0B6FA0020E1
:104FD00010BD10B50223C0F8943282611346C2613D
:104FE0000A46002100F052FB002010BD10B504213C
:104FF000C0F8941200231A46194600F047FB00201F
:1050000010BDF8B504460020ADF8000048880D46F4
:10501000010A08295FD2DFE801F05E0409175E5E2D
:105020003C45D4F8B412207C0A6819E0207C0226A2
:105030000028D4F8B80205D0C16A684688470146FE
:10504000467039E0816AF8E7C0B2062843D2DFE84B
:1050500000F0030A1014181CD4F8B402426805E0EA
:10506000694690471CE0D4F8B402826892B3207C71
:10507000F6E7D4F8B402C268F8E7D4F8B4020269DB
:10508000F4E7D4F8B4024269F0E7D4F8B4028269D4
:10509000ECE7207CF0B9D4F8B802416B6846884749
:1050A000014609E0207CA8B9D4F8B802016B684633
:1050B0008847014607204870EA888AB1BDF8000099
:1050C00040B1824200D90246ADF800202046FFF7E9
:1050D00080FFF8BDFFE729462046FFF755FFF8E7B8
:1050E0002046FFF783FFF4E778B50E464288017843
:1050F000002504468A4212D9ADF800100AE069463C
:1051000000F019F84178052904D181780546B142AB
:1051100005D000256188BDF800209142EFD82846CF
:1051200078BD0146002002E0401CC0B2491C0A784C
:10513000002AF9D170470A8803781A440A80017856
:105140000844704770B516460D46002820D0044626
:10515000FFF7E7FF022101EB40014FF400708142AD
:1051600004D82046FFF7DDFF4000801C30803078F7
:105170002870032068700220002206E02954401C99
:10518000C0B22A54401CC0B2641C21780029F5D159
:1051900070BD01004FF0000004D0012901D00229A8
:1051A00001D00320704701207047000010B50A4667
:1051B000024903A0FFF7C6FF004810BDAC0800205D
:1051C00043444320436F6E666967000012200880E5
:1051D000004870478001002010B50A46024903A02C
:1051E000FFF7B0FF004810BDAC0800204344432047
:1051F000496E746572666163650000000420088072
:10520000004870477C01002010B50A46024903A0FF
:10521000FFF798FF004810BDAC08002053544D69BB
:1052200063726F656C656374726F6E69637300009F
:1052300010B50A46024903A0FFF784FF004810BDDD
:10524000AC08002053544D33322056697274756196
:105250006C20436F6D00000010B51A2008800A48CA
:105260000168001D0468001D0068081809D00822A4
:105270000649FEF79DFC0549042210312046FEF741
:1052800097FC0248801E10BD107AFF1F9601002077
:1052900078B10023C0F8B832C0F8C432C0F8D032B8
:1052A00009B1C0F8B412012180F89C12027000F01C
:1052B000CBB80320704710B5D0F8C802FCF7B6FE93
:1052C000BDE81040FFF765BF10B5D0F8C802FCF785
:1052D00088FEBDE81040FFF75CBF2DE9F04117469E
:1052E0000446002521B194F89C02032842D04CE0EA
:1052F000D4F8941204F11400022935D1D0E90263E4
:105300009E4206D9F21A826039462046FFF734FEE3
:105310000FE0B34214D14068984211D3D4F89812E8
:1053200088420DD2002211462046FFF725FEC4F820
:10533000985200231A461946204600F0FEF813E062
:1053400094F89C02032808D1D4F8B802C16821B1AE
:10535000C4F8D452C168204688478021204600F016
:1053600076F92046FFF72AFE94F8A00268B184F887
:10537000A0520AE0D4F8B802426932B1C4F8D4525B
:10538000426920469047002800D10020BDE8F08106
:1053900070B513460446002221B194F89C020328FC
:1053A00030D03AE0D4F8941204F5AA70032934D12D
:1053B000D0E902518D420AD96A1A826008468242B7
:1053C00000D3024619462046FFF7CEFD25E094F8AB
:1053D000AA0210F01F0003D0012802D0022800D03A
:1053E000002294F89C02032808D1D4F8B80201697D
:1053F00021B1C4F8D4220169204688472046FFF72E
:10540000F5FD0AE0D4F8B802836933B1C4F8D422B8
:10541000826920469047002800D1002070BD0020FE
:10542000704710B50024012180F89C12D0F8B822F2
:1054300022B152680179904700B10324204610BD83
:10544000D0F8C802FCF71FBE10B5017801292AD197
:1054500016490122C1F8E004C0F8C81214480860D7
:10546000062008710220C8718A7148720020887273
:10547000C87208738873C87308740846FDF762F928
:1054800008B1FBF704FF4FF400710848FCF759FD21
:10549000802200210548FCF758FD4FF4BA72012123
:1054A0000248FCF752FD002010BD0000CC1C00207B
:1054B000000004400A0601F07F01D0F8C80201EBA9
:1054C000C10100EB810001D5807D704790F8560244
:1054D000704710B5D0F8D42200EB8202D2F8B8227F
:1054E00022B190F89C32032B02D004E0032010BDBF
:1054F000126A02B19047002010BD10B5D0F8D42236
:1055000000EB8202D2F8B82222B190F89C32032B31
:1055100002D004E0032010BD526A02B1904700207F
:1055200010BD10B51C461346D0F8C8022246FCF741
:10553000B3FDBDE81040FFF72CBE10B5D0F8C8028F
:10554000FCF7DBFDBDE81040FFF723BE2DE9F0417D
:1055500000260125044680F89C52C4F894626660D7
:10556000C4F8A46280F8A062D0F8B80230B14268F2
:1055700022B100212046904700B10326002240239B
:1055800011462046FFF7CDFF4027A4F864513B4663
:10559000002280212046C4F86071FFF7C2FFA58475
:1055A00030462762BDE8F08190F89C12042903D1AF
:1055B00090F89D1280F89C120020704710B590F86A
:1055C0009C12032905D1D0F8B81211B1C96901B1F3
:1055D0008847002010BD01740020704710B5D0F836
:1055E000C802FDF76FF9BDE81040FFF7D2BD70B5F6
:1055F000044600F2AA20054600F051F80120C4F844
:105600009402B4F8B002C4F8980294F8AA0210F018
:105610001F010AD001290ED0022912D000F080010A
:105620002046BDE8704000F012B829462046BDE88B
:10563000704000F0CFB829462046BDE8704000F029
:105640000FBA29462046BDE8704000F059B910B5A0
:10565000D0F8C802FCF76DFDBDE81040FFF799BD1A
:1056600010B5D0F8C802FDF747F9BDE81040FFF7C4
:1056700090BD90F89C12042903D090F89C1280F8F9
:105680009D12042180F89C120020704710B5D0F8BC
:10569000C802FCF787FDBDE81040FFF77ABD70B582
:1056A000054611F8010B2870087868704C1C2046DC
:1056B000FEF7C0FE6880A41C2046FEF7BBFEA88053
:1056C000A01CFEF7B7FEE88070BD38B50446002088
:1056D000ADF80000A1B1C4F8B812D4F8D40204EBBC
:1056E0008000D0F8B802C16A19B168468847C4F88A
:1056F000D002D4F8D802401CC4F8D802002038BD2B
:10570000032038BD02460020D2F8B832002B02D068
:105710001B681046184770472DE9F04188462B4E0C
:105720008978002504463170012906D94146204672
:10573000FFF72AFC0320BDE8F08194F89C020227C1
:1057400002280CD003281DD041462046FFF71CFC40
:1057500031782046FFF7FAFB03252846EBE789B3AB
:1057600020466160FFF7CEFF050004D04146204689
:10577000FFF70AFC1DE02046FFF738FC032084F801
:105780009C02EAE7C1B1606888421BD0C1B22046E2
:10579000FFF7DCFB317820466160FFF7B3FF0500BF
:1057A00010D041462046FFF7EFFB21792046FFF756
:1057B000CDFB84F89C72D0E784F89C72204661602F
:1057C000FFF7C4FB2046FFF711FCC6E75402002098
:1057D000FFF746BF2DE9F0410A78002512F060027C
:1057E0000CD0202A01D0402A7DD1D0F8D42200EB61
:1057F0008202D2F8B8229268904731E04B780022BA
:1058000001260A2B6FD2DFE803F041666E586E085E
:10581000056E2D29FFF7F5FB67E004468888D8B9A7
:10582000C888C8B94888802816D200F07F0794F845
:105830009C02032810D084F89E7239462046FFF758
:10584000CDFE2046FFF7D2FB1FB1022084F89C0258
:105850004BE084F89C6248E0204644E0FFF75CFFA0
:10586000054642E0CB88012B3DD190F89C32012BBC
:1058700004D0022B02D0032B35D104E08260012238
:1058800000F1080116E00122011D13E090F89C22AE
:10589000012A03D0022A01D0032A24D1CA88022A6D
:1058A00021D1C660D0F8A41209B10321C16002223F
:1058B00000F10C01FFF78DFB17E04A88012A02D0A6
:1058C000022A03D00FE0C0F8A46216E08988090A12
:1058D00080F8A01211E090F89C32012B08D0022B26
:1058E00006D0032B04D0FFF74FFB2846BDE8F0811C
:1058F00049880129F9D1C0F8A422FFF777FBF4E722
:105900002DE9F041054608780C790E464FF0000865
:1059100010F060000BD0202801D040286AD1214629
:105920002846FFF71DFBFF2800D0D8B395E070781C
:10593000C8B3012824D003285CD195F89C02022822
:1059400002D0032856D10CE0002C53D0802C51D02B
:1059500021462846FFF77BFE80212846FFF777FE89
:105960007BE0708840B93CB1802C05D0C88818B95C
:1059700021462846FFF76BFE2846FFF737FB6CE011
:1059800095F89C020228DFD0032863D1708880BB81
:10599000600603D021462846FFF78DFC2846FFF716
:1059A00025FBBCE700E00AE0C5F8D402D5F8B80250
:1059B0008268F2B131462846904780464DE095F81E
:1059C0009C020027022802D0032843D113E00CB127
:1059D000802C3FD1200604F07F0000EB800005EB17
:1059E000800101D5143101E001F5AA7102220F6096
:1059F0002CE032E02EE0200604F00F0000EB8000E7
:105A000005EB800009D5808C20B304F07F0000EB0B
:105A1000800005EB800614360AE0B0F86401C8B1D6
:105A200004F07F0000EB800005EB800606F5AA7607
:105A30004CB1802C07D021462846FFF73BFD10B122
:105A40000120306000E03760022231462846FFF72F
:105A5000C0FA02E02846FFF797FA4046BDE8F08119
:105A600070B50546087800240E4610F0600003D09B
:105A7000202801D0402827D195F89C02012803D086
:105A8000022801D003281FD1B088C1B201291AD839
:105A9000C1B22846FFF766FAFF280CD058B9D5F8EE
:105AA000B8128A683AB1C5F8D4028A6831462846E5
:105AB0009047044600E00324F088204307D128469D
:105AC000FFF794FA03E031462846FFF75DFA2046D7
:105AD00070BD704700487047AC1A002070B50A7856
